{
  "abi": [
    {
      "type": "constructor",
      "inputs": [
        {
          "name": "_addressResolver",
          "type": "address",
          "internalType": "address"
        },
        {
          "name": "deployerContract_",
          "type": "address",
          "internalType": "address"
        },
        {
          "name": "feesData_",
          "type": "tuple",
          "internalType": "struct FeesData",
          "components": [
            {
              "name": "feePoolChain",
              "type": "uint32",
              "internalType": "uint32"
            },
            {
              "name": "feePoolToken",
              "type": "address",
              "internalType": "address"
            },
            {
              "name": "maxFees",
              "type": "uint256",
              "internalType": "uint256"
            }
          ]
        },
        {
          "name": "initialChainSlugs_",
          "type": "uint32[]",
          "internalType": "uint32[]"
        }
      ],
      "stateMutability": "nonpayable"
    },
    {
      "type": "function",
      "name": "addChainInstances",
      "inputs": [
        {
          "name": "chainSlug",
          "type": "uint32",
          "internalType": "uint32"
        },
        {
          "name": "instances",
          "type": "address[]",
          "internalType": "address[]"
        }
      ],
      "outputs": [],
      "stateMutability": "nonpayable"
    },
    {
      "type": "function",
      "name": "addSupportedChain",
      "inputs": [
        {
          "name": "chainSlug",
          "type": "uint32",
          "internalType": "uint32"
        }
      ],
      "outputs": [],
      "stateMutability": "nonpayable"
    },
    {
      "type": "function",
      "name": "addressResolver",
      "inputs": [],
      "outputs": [
        {
          "name": "",
          "type": "address",
          "internalType": "contract IAddressResolver"
        }
      ],
      "stateMutability": "view"
    },
    {
      "type": "function",
      "name": "allContractsDeployed",
      "inputs": [
        {
          "name": "chainSlug_",
          "type": "uint32",
          "internalType": "uint32"
        }
      ],
      "outputs": [],
      "stateMutability": "nonpayable"
    },
    {
      "type": "function",
      "name": "auctionHouse",
      "inputs": [],
      "outputs": [
        {
          "name": "",
          "type": "address",
          "internalType": "contract IAuctionHouse"
        }
      ],
      "stateMutability": "view"
    },
    {
      "type": "function",
      "name": "chainInstances",
      "inputs": [
        {
          "name": "",
          "type": "uint32",
          "internalType": "uint32"
        },
        {
          "name": "",
          "type": "uint256",
          "internalType": "uint256"
        }
      ],
      "outputs": [
        {
          "name": "",
          "type": "address",
          "internalType": "address"
        }
      ],
      "stateMutability": "view"
    },
    {
      "type": "function",
      "name": "claimOwner",
      "inputs": [],
      "outputs": [],
      "stateMutability": "nonpayable"
    },
    {
      "type": "function",
      "name": "executeBatchDualDexTrades",
      "inputs": [
        {
          "name": "chainSlugs",
          "type": "uint32[]",
          "internalType": "uint32[]"
        },
        {
          "name": "routers1",
          "type": "address[]",
          "internalType": "address[]"
        },
        {
          "name": "routers2",
          "type": "address[]",
          "internalType": "address[]"
        },
        {
          "name": "tokens1",
          "type": "address[]",
          "internalType": "address[]"
        },
        {
          "name": "tokens2",
          "type": "address[]",
          "internalType": "address[]"
        },
        {
          "name": "amounts",
          "type": "uint256[]",
          "internalType": "uint256[]"
        }
      ],
      "outputs": [],
      "stateMutability": "nonpayable"
    },
    {
      "type": "function",
      "name": "executeDualDexTrade",
      "inputs": [
        {
          "name": "chainSlug",
          "type": "uint32",
          "internalType": "uint32"
        },
        {
          "name": "router1",
          "type": "address",
          "internalType": "address"
        },
        {
          "name": "router2",
          "type": "address",
          "internalType": "address"
        },
        {
          "name": "token1",
          "type": "address",
          "internalType": "address"
        },
        {
          "name": "token2",
          "type": "address",
          "internalType": "address"
        },
        {
          "name": "amount",
          "type": "uint256",
          "internalType": "uint256"
        }
      ],
      "outputs": [],
      "stateMutability": "nonpayable"
    },
    {
      "type": "function",
      "name": "feesData",
      "inputs": [],
      "outputs": [
        {
          "name": "feePoolChain",
          "type": "uint32",
          "internalType": "uint32"
        },
        {
          "name": "feePoolToken",
          "type": "address",
          "internalType": "address"
        },
        {
          "name": "maxFees",
          "type": "uint256",
          "internalType": "uint256"
        }
      ],
      "stateMutability": "view"
    },
    {
      "type": "function",
      "name": "getChainInstanceCount",
      "inputs": [
        {
          "name": "chainSlug",
          "type": "uint32",
          "internalType": "uint32"
        }
      ],
      "outputs": [
        {
          "name": "",
          "type": "uint256",
          "internalType": "uint256"
        }
      ],
      "stateMutability": "view"
    },
    {
      "type": "function",
      "name": "getFeesData",
      "inputs": [],
      "outputs": [
        {
          "name": "",
          "type": "tuple",
          "internalType": "struct FeesData",
          "components": [
            {
              "name": "feePoolChain",
              "type": "uint32",
              "internalType": "uint32"
            },
            {
              "name": "feePoolToken",
              "type": "address",
              "internalType": "address"
            },
            {
              "name": "maxFees",
              "type": "uint256",
              "internalType": "uint256"
            }
          ]
        }
      ],
      "stateMutability": "view"
    },
    {
      "type": "function",
      "name": "isChainSupported",
      "inputs": [
        {
          "name": "chainSlug",
          "type": "uint32",
          "internalType": "uint32"
        }
      ],
      "outputs": [
        {
          "name": "",
          "type": "bool",
          "internalType": "bool"
        }
      ],
      "stateMutability": "view"
    },
    {
      "type": "function",
      "name": "isReadCall",
      "inputs": [],
      "outputs": [
        {
          "name": "",
          "type": "bool",
          "internalType": "bool"
        }
      ],
      "stateMutability": "view"
    },
    {
      "type": "function",
      "name": "isValidPromise",
      "inputs": [
        {
          "name": "",
          "type": "address",
          "internalType": "address"
        }
      ],
      "outputs": [
        {
          "name": "",
          "type": "bool",
          "internalType": "bool"
        }
      ],
      "stateMutability": "view"
    },
    {
      "type": "function",
      "name": "nominateOwner",
      "inputs": [
        {
          "name": "nominee_",
          "type": "address",
          "internalType": "address"
        }
      ],
      "outputs": [],
      "stateMutability": "nonpayable"
    },
    {
      "type": "function",
      "name": "nominee",
      "inputs": [],
      "outputs": [
        {
          "name": "",
          "type": "address",
          "internalType": "address"
        }
      ],
      "stateMutability": "view"
    },
    {
      "type": "function",
      "name": "owner",
      "inputs": [],
      "outputs": [
        {
          "name": "",
          "type": "address",
          "internalType": "address"
        }
      ],
      "stateMutability": "view"
    },
    {
      "type": "function",
      "name": "setFees",
      "inputs": [
        {
          "name": "feesData_",
          "type": "tuple",
          "internalType": "struct FeesData",
          "components": [
            {
              "name": "feePoolChain",
              "type": "uint32",
              "internalType": "uint32"
            },
            {
              "name": "feePoolToken",
              "type": "address",
              "internalType": "address"
            },
            {
              "name": "maxFees",
              "type": "uint256",
              "internalType": "uint256"
            }
          ]
        }
      ],
      "outputs": [],
      "stateMutability": "nonpayable"
    },
    {
      "type": "function",
      "name": "supportedChainSlugs",
      "inputs": [
        {
          "name": "",
          "type": "uint256",
          "internalType": "uint256"
        }
      ],
      "outputs": [
        {
          "name": "",
          "type": "uint32",
          "internalType": "uint32"
        }
      ],
      "stateMutability": "view"
    },
    {
      "type": "function",
      "name": "watcherPrecompile",
      "inputs": [],
      "outputs": [
        {
          "name": "",
          "type": "address",
          "internalType": "contract IWatcherPrecompile"
        }
      ],
      "stateMutability": "view"
    },
    {
      "type": "event",
      "name": "ArbitrageExecuted",
      "inputs": [
        {
          "name": "chainSlug",
          "type": "uint32",
          "indexed": false,
          "internalType": "uint32"
        },
        {
          "name": "instance",
          "type": "address",
          "indexed": false,
          "internalType": "address"
        },
        {
          "name": "router1",
          "type": "address",
          "indexed": false,
          "internalType": "address"
        },
        {
          "name": "router2",
          "type": "address",
          "indexed": false,
          "internalType": "address"
        },
        {
          "name": "token1",
          "type": "address",
          "indexed": false,
          "internalType": "address"
        },
        {
          "name": "token2",
          "type": "address",
          "indexed": false,
          "internalType": "address"
        },
        {
          "name": "amount",
          "type": "uint256",
          "indexed": false,
          "internalType": "uint256"
        }
      ],
      "anonymous": false
    },
    {
      "type": "event",
      "name": "OwnerClaimed",
      "inputs": [
        {
          "name": "claimer",
          "type": "address",
          "indexed": true,
          "internalType": "address"
        }
      ],
      "anonymous": false
    },
    {
      "type": "event",
      "name": "OwnerNominated",
      "inputs": [
        {
          "name": "nominee",
          "type": "address",
          "indexed": true,
          "internalType": "address"
        }
      ],
      "anonymous": false
    },
    {
      "type": "error",
      "name": "FeesDataNotSet",
      "inputs": []
    },
    {
      "type": "error",
      "name": "InvalidPromise",
      "inputs": []
    },
    {
      "type": "error",
      "name": "OnlyNominee",
      "inputs": []
    },
    {
      "type": "error",
      "name": "OnlyOwner",
      "inputs": []
    }
  ],
  "bytecode": {
    "object": "0x608060405234801561001057600080fd5b506040516119f73803806119f783398101604081905261002f916102be565b600080546001600160a01b0319166001600160a01b038616179055336100548161013e565b5060005460405163b08dd08b60e01b81526001600160a01b0385811660048301529091169063b08dd08b90602401600060405180830381600087803b15801561009c57600080fd5b505af11580156100b0573d6000803e3d6000fd5b505050506100c38261019260201b60201c565b60005b81518110156101345760098282815181106100e3576100e3610380565b6020908102919091018101518254600181810185556000948552929093206008840401805463ffffffff92831660046007909616959095026101000a948502929094021990931617909155016100c6565b5050505050610396565b600680546001600160a01b0383166001600160a01b031991821681179092556007805490911690556040517ffbe19c9b601f5ee90b44c7390f3fa2319eba01762d34ee372aeafd59b25c7f8790600090a250565b80516001805460208401516001600160a01b0316640100000000026001600160c01b031990911663ffffffff9093169290921791909117905560400151600255565b80516001600160a01b03811681146101eb57600080fd5b919050565b634e487b7160e01b600052604160045260246000fd5b805163ffffffff811681146101eb57600080fd5b600082601f83011261022b57600080fd5b815160206001600160401b0380831115610247576102476101f0565b8260051b604051601f19603f8301168101818110848211171561026c5761026c6101f0565b604052938452602081870181019490810192508785111561028c57600080fd5b6020870191505b848210156102b3576102a482610206565b83529183019190830190610293565b979650505050505050565b60008060008084860360c08112156102d557600080fd5b6102de866101d4565b94506102ec602087016101d4565b93506060603f198201121561030057600080fd5b50604051606081016001600160401b038082118383101715610324576103246101f0565b8160405261033460408901610206565b8352610342606089016101d4565b60208401526080880151604084015260a08801519294508083111561036657600080fd5b50506103748782880161021a565b91505092959194509250565b634e487b7160e01b600052603260045260246000fd5b611652806103a56000396000f3fe608060405234801561001057600080fd5b50600436106101375760003560e01c80635b94db27116100b8578063cbaa349e1161007c578063cbaa349e14610370578063cfc8785514610383578063d1456ce514610396578063d6f14d101461039e578063ed9152c8146103b1578063f08e37c0146103b957600080fd5b80635b94db27146102af5780638da5cb5b146102c2578063b682da3e146102d3578063b690b96214610325578063c691c96a1461034857600080fd5b806320f99c0a116100ff57806320f99c0a1461023c5780633bd1adec1461024d578063467cba7b146102555780634b40ee7c14610289578063509645861461029c57600080fd5b806305a2ee2a1461013c57806305c20c821461016c578063130db2411461018957806315e6ffa6146102145780631c49a04914610229575b600080fd5b60005461014f906001600160a01b031681565b6040516001600160a01b0390911681526020015b60405180910390f35b6003546101799060ff1681565b6040519015158152602001610163565b6101e36040805160608101825260008082526020820181905291810191909152506040805160608101825260015463ffffffff8116825264010000000090046001600160a01b031660208201526002549181019190915290565b60408051825163ffffffff1681526020808401516001600160a01b0316908201529181015190820152606001610163565b610227610222366004611183565b6103cc565b005b610227610237366004611296565b6104c6565b6007546001600160a01b031661014f565b610227610794565b61027b61026336600461138b565b63ffffffff166000908152600a602052604090205490565b604051908152602001610163565b61022761029736600461138b565b6107ca565b6102276102aa36600461138b565b61089a565b6102276102bd3660046113ad565b61097b565b6006546001600160a01b031661014f565b6001546002546102fb9163ffffffff8116916401000000009091046001600160a01b03169083565b6040805163ffffffff90941684526001600160a01b03909216602084015290820152606001610163565b6101796103333660046113ad565b60056020526000908152604090205460ff1681565b61035b6103563660046113ca565b6109f0565b60405163ffffffff9091168152602001610163565b61017961037e36600461138b565b610a2a565b61014f6103913660046113e3565b610a95565b61014f610acd565b6102276103ac36600461140d565b610b4a565b61014f610dca565b6102276103c7366004611484565b610e1e565b6006546001600160a01b031633146103f757604051635fc483c560e01b815260040160405180910390fd5b61040082610a2a565b6104475760405162461bcd60e51b815260206004820152601360248201527210da185a5b881b9bdd081cdd5c1c1bdc9d1959606a1b60448201526064015b60405180910390fd5b60005b81518110156104c15763ffffffff83166000908152600a60205260409020825183908390811061047c5761047c6114ed565b60209081029190910181015182546001808201855560009485529290932090920180546001600160a01b0319166001600160a01b03909316929092179091550161044a565b505050565b60015463ffffffff166000036104ee57604051620bb18560ea1b815260040160405180910390fd5b6104f6610dca565b6001600160a01b031663f22cb8746040518163ffffffff1660e01b8152600401600060405180830381600087803b15801561053057600080fd5b505af1158015610544573d6000803e3d6000fd5b505060008054604080516325b80c8d60e21b815290516001600160a01b0390921694506396e032349350600480820193929182900301818387803b15801561058b57600080fd5b505af115801561059f573d6000803e3d6000fd5b50505050845186511480156105b5575083518651145b80156105c2575082518651145b80156105cf575081518651145b80156105dc575080518651145b6106215760405162461bcd60e51b8152602060048201526016602482015275082e4e4c2f240d8cadccee8d0e640dad2e6dac2e8c6d60531b604482015260640161043e565b60005b86518110156106d9576106d1878281518110610642576106426114ed565b602002602001015187838151811061065c5761065c6114ed565b6020026020010151878481518110610676576106766114ed565b6020026020010151878581518110610690576106906114ed565b60200260200101518786815181106106aa576106aa6114ed565b60200260200101518787815181106106c4576106c46114ed565b6020026020010151610b4a565b600101610624565b506106e2610dca565b6001600160a01b0316639646a49e60016004546040518363ffffffff1660e01b8152600401610740929190825463ffffffff81168252602090811c6001600160a01b0316908201526001909201546040830152606082015260800190565b6020604051808303816000875af115801561075f573d6000803e3d6000fd5b505050506040513d601f19601f820116820180604052508101906107839190611503565b5061078c610e8b565b505050505050565b6007546001600160a01b031633146107bf57604051637c91ccdd60e01b815260040160405180910390fd5b6107c833610f6b565b565b60008054906101000a90046001600160a01b03166001600160a01b031663ed9152c86040518163ffffffff1660e01b8152600401602060405180830381865afa15801561081b573d6000803e3d6000fd5b505050506040513d601f19601f8201168201806040525081019061083f919061151c565b6001600160a01b0316336001600160a01b0316146108975760405162461bcd60e51b81526020600482015260156024820152744f6e6c79207061796c6f61642064656c697665727960581b604482015260640161043e565b50565b6006546001600160a01b031633146108c557604051635fc483c560e01b815260040160405180910390fd5b6108ce81610a2a565b1561091b5760405162461bcd60e51b815260206004820152601760248201527f436861696e20616c726561647920737570706f72746564000000000000000000604482015260640161043e565b600980546001810182556000919091527f6e1540171b6c0c960b71a7020d9f60077f6af931a8bbf590da0223dacf75c7af6008820401805460079092166004026101000a63ffffffff818102199093169390921691909102919091179055565b6006546001600160a01b031633146109a657604051635fc483c560e01b815260040160405180910390fd5b600780546001600160a01b0319166001600160a01b0383169081179091556040517f906a1c6bd7e3091ea86693dd029a831c19049ce77f1dce2ce0bab1cacbabce2290600090a250565b60098181548110610a0057600080fd5b9060005260206000209060089182820401919006600402915054906101000a900463ffffffff1681565b6000805b600954811015610a8c578263ffffffff1660098281548110610a5257610a526114ed565b6000918252602090912060088204015460079091166004026101000a900463ffffffff1603610a845750600192915050565b600101610a2e565b50600092915050565b600a6020528160005260406000208181548110610ab157600080fd5b6000918252602090912001546001600160a01b03169150829050565b60008060009054906101000a90046001600160a01b03166001600160a01b031663d1456ce56040518163ffffffff1660e01b8152600401602060405180830381865afa158015610b21573d6000803e3d6000fd5b505050506040513d601f19601f82011682018060405250810190610b45919061151c565b905090565b60015463ffffffff16600003610b7257604051620bb18560ea1b815260040160405180910390fd5b610b7a610dca565b6001600160a01b031663f22cb8746040518163ffffffff1660e01b8152600401600060405180830381600087803b158015610bb457600080fd5b505af1158015610bc8573d6000803e3d6000fd5b505060008054604080516325b80c8d60e21b815290516001600160a01b0390921694506396e032349350600480820193929182900301818387803b158015610c0f57600080fd5b505af1158015610c23573d6000803e3d6000fd5b50505050610c3086610a2a565b610c725760405162461bcd60e51b815260206004820152601360248201527210da185a5b881b9bdd081cdd5c1c1bdc9d1959606a1b604482015260640161043e565b63ffffffff86166000908152600a6020526040902054610ccd5760405162461bcd60e51b815260206004820152601660248201527527379034b739ba30b731b2b9903337b91031b430b4b760511b604482015260640161043e565b6000610cd887610fbf565b604051630354a26360e31b81526001600160a01b0388811660048301528781166024830152868116604483015285811660648301526084820185905291925090821690631aa513189060a401600060405180830381600087803b158015610d3e57600080fd5b505af1158015610d52573d6000803e3d6000fd5b50506040805163ffffffff8b1681526001600160a01b0385811660208301528a81168284015289811660608301528881166080830152871660a082015260c0810186905290517f39f7bd5735bb2693ba4136f19d63a06ba7d71d51489da7e5e4c76d29b8e6d3dd93509081900360e0019150a1506106e25b60008060009054906101000a90046001600160a01b03166001600160a01b031663ed9152c86040518163ffffffff1660e01b8152600401602060405180830381865afa158015610b21573d6000803e3d6000fd5b6006546001600160a01b03163314610e4957604051635fc483c560e01b815260040160405180910390fd5b80516001805460208401516001600160a01b0316640100000000026001600160c01b031990911663ffffffff9093169290921791909117905560400151600255565b60008060009054906101000a90046001600160a01b03166001600160a01b031663a01afb0d6040518163ffffffff1660e01b8152600401600060405180830381865afa158015610edf573d6000803e3d6000fd5b505050506040513d6000823e601f3d908101601f19168201604052610f079190810190611539565b905060005b8151811015610f6757600160056000848481518110610f2d57610f2d6114ed565b6020908102919091018101516001600160a01b03168252810191909152604001600020805460ff1916911515919091179055600101610f0c565b5050565b600680546001600160a01b0383166001600160a01b031991821681179092556007805490911690556040517ffbe19c9b601f5ee90b44c7390f3fa2319eba01762d34ee372aeafd59b25c7f8790600090a250565b63ffffffff81166000908152600a60205260408120805461101b5760405162461bcd60e51b81526020600482015260166024820152754e6f20696e7374616e63657320617661696c61626c6560501b604482015260640161043e565b805460085460009161102c916115d3565b60088054919250600061103e836115f5565b9190505550818181548110611055576110556114ed565b6000918252602090912001546001600160a01b0316949350505050565b803563ffffffff8116811461108657600080fd5b919050565b634e487b7160e01b600052604160045260246000fd5b604051601f8201601f1916810167ffffffffffffffff811182821017156110ca576110ca61108b565b604052919050565b600067ffffffffffffffff8211156110ec576110ec61108b565b5060051b60200190565b6001600160a01b038116811461089757600080fd5b600082601f83011261111c57600080fd5b8135602061113161112c836110d2565b6110a1565b8083825260208201915060208460051b87010193508684111561115357600080fd5b602086015b8481101561117857803561116b816110f6565b8352918301918301611158565b509695505050505050565b6000806040838503121561119657600080fd5b61119f83611072565b9150602083013567ffffffffffffffff8111156111bb57600080fd5b6111c78582860161110b565b9150509250929050565b600082601f8301126111e257600080fd5b813560206111f261112c836110d2565b8083825260208201915060208460051b87010193508684111561121457600080fd5b602086015b848110156111785761122a81611072565b8352918301918301611219565b600082601f83011261124857600080fd5b8135602061125861112c836110d2565b8083825260208201915060208460051b87010193508684111561127a57600080fd5b602086015b84811015611178578035835291830191830161127f565b60008060008060008060c087890312156112af57600080fd5b863567ffffffffffffffff808211156112c757600080fd5b6112d38a838b016111d1565b975060208901359150808211156112e957600080fd5b6112f58a838b0161110b565b9650604089013591508082111561130b57600080fd5b6113178a838b0161110b565b9550606089013591508082111561132d57600080fd5b6113398a838b0161110b565b9450608089013591508082111561134f57600080fd5b61135b8a838b0161110b565b935060a089013591508082111561137157600080fd5b5061137e89828a01611237565b9150509295509295509295565b60006020828403121561139d57600080fd5b6113a682611072565b9392505050565b6000602082840312156113bf57600080fd5b81356113a6816110f6565b6000602082840312156113dc57600080fd5b5035919050565b600080604083850312156113f657600080fd5b6113ff83611072565b946020939093013593505050565b60008060008060008060c0878903121561142657600080fd5b61142f87611072565b9550602087013561143f816110f6565b9450604087013561144f816110f6565b9350606087013561145f816110f6565b9250608087013561146f816110f6565b8092505060a087013590509295509295509295565b60006060828403121561149657600080fd5b6040516060810181811067ffffffffffffffff821117156114b9576114b961108b565b6040526114c583611072565b815260208301356114d5816110f6565b60208201526040928301359281019290925250919050565b634e487b7160e01b600052603260045260246000fd5b60006020828403121561151557600080fd5b5051919050565b60006020828403121561152e57600080fd5b81516113a6816110f6565b6000602080838503121561154c57600080fd5b825167ffffffffffffffff81111561156357600080fd5b8301601f8101851361157457600080fd5b805161158261112c826110d2565b81815260059190911b820183019083810190878311156115a157600080fd5b928401925b828410156115c85783516115b9816110f6565b825292840192908401906115a6565b979650505050505050565b6000826115f057634e487b7160e01b600052601260045260246000fd5b500690565b60006001820161161557634e487b7160e01b600052601160045260246000fd5b506001019056fea2646970667358221220f10370e09f246394547a701a772bd1e8d8388c8f3a3bc0f51f8494a00cfa05ae64736f6c63430008190033",
    "linkReferences": {}
  },
  "methodIdentifiers": {
    "addChainInstances(uint32,address[])": "15e6ffa6",
    "addSupportedChain(uint32)": "50964586",
    "addressResolver()": "05a2ee2a",
    "allContractsDeployed(uint32)": "4b40ee7c",
    "auctionHouse()": "ed9152c8",
    "chainInstances(uint32,uint256)": "cfc87855",
    "claimOwner()": "3bd1adec",
    "executeBatchDualDexTrades(uint32[],address[],address[],address[],address[],uint256[])": "1c49a049",
    "executeDualDexTrade(uint32,address,address,address,address,uint256)": "d6f14d10",
    "feesData()": "b682da3e",
    "getChainInstanceCount(uint32)": "467cba7b",
    "getFeesData()": "130db241",
    "isChainSupported(uint32)": "cbaa349e",
    "isReadCall()": "05c20c82",
    "isValidPromise(address)": "b690b962",
    "nominateOwner(address)": "5b94db27",
    "nominee()": "20f99c0a",
    "owner()": "8da5cb5b",
    "setFees((uint32,address,uint256))": "f08e37c0",
    "supportedChainSlugs(uint256)": "c691c96a",
    "watcherPrecompile()": "d1456ce5"
  },
  "id": 35
}